{
  "address": "0x9fE46736679d2D9a65F0992F2272dE9f3c7fa6e0",
  "abi": [
    {
      "inputs": [
        {
          "internalType": "string",
          "name": "_auctionId",
          "type": "string"
        },
        {
          "internalType": "string",
          "name": "_propertyId",
          "type": "string"
        }
      ],
      "name": "addAuction",
      "outputs": [],
      "stateMutability": "payable",
      "type": "function"
    },
    {
      "inputs": [
        {
          "internalType": "string",
          "name": "_auctionId",
          "type": "string"
        },
        {
          "internalType": "uint256",
          "name": "_value",
          "type": "uint256"
        }
      ],
      "name": "addBid",
      "outputs": [],
      "stateMutability": "payable",
      "type": "function"
    },
    {
      "inputs": [
        {
          "internalType": "string",
          "name": "_auctionId",
          "type": "string"
        }
      ],
      "name": "auctionProperty",
      "outputs": [
        {
          "internalType": "string",
          "name": "",
          "type": "string"
        }
      ],
      "stateMutability": "view",
      "type": "function"
    },
    {
      "inputs": [
        {
          "internalType": "string",
          "name": "_auctionId",
          "type": "string"
        }
      ],
      "name": "getBid",
      "outputs": [
        {
          "internalType": "uint256",
          "name": "",
          "type": "uint256"
        }
      ],
      "stateMutability": "view",
      "type": "function"
    },
    {
      "inputs": [
        {
          "internalType": "string",
          "name": "_auctionId",
          "type": "string"
        }
      ],
      "name": "isAuctionActive",
      "outputs": [
        {
          "internalType": "bool",
          "name": "",
          "type": "bool"
        }
      ],
      "stateMutability": "view",
      "type": "function"
    },
    {
      "inputs": [
        {
          "internalType": "string",
          "name": "_auctionId",
          "type": "string"
        }
      ],
      "name": "removeBid",
      "outputs": [],
      "stateMutability": "nonpayable",
      "type": "function"
    },
    {
      "inputs": [
        {
          "internalType": "string",
          "name": "_auctionId",
          "type": "string"
        },
        {
          "internalType": "address payable",
          "name": "_bidder",
          "type": "address"
        }
      ],
      "name": "returnStake",
      "outputs": [],
      "stateMutability": "nonpayable",
      "type": "function"
    },
    {
      "inputs": [
        {
          "internalType": "string",
          "name": "_auctionId",
          "type": "string"
        }
      ],
      "name": "stopAuction",
      "outputs": [],
      "stateMutability": "nonpayable",
      "type": "function"
    },
    {
      "inputs": [
        {
          "internalType": "string",
          "name": "_auctionId",
          "type": "string"
        },
        {
          "internalType": "uint256",
          "name": "_value",
          "type": "uint256"
        }
      ],
      "name": "updateBid",
      "outputs": [],
      "stateMutability": "payable",
      "type": "function"
    }
  ],
  "transactionHash": "0x1788c7288aa2ba88fcc4861c9598c4077e48e28912a05d0d71cbb262d02712fe",
  "args": [],
  "numDeployments": 1,
  "solcInputHash": "6c094be77ea9d19ff5404d90a8b26fa1",
  "bytecode": "0x608060405234801561001057600080fd5b50611174806100206000396000f3fe6080604052600436106100865760003560e01c806372d5c1f81161005957806372d5c1f81461014a57806374463ef6146101735780639c9681b11461018f578063cd1a8140146101ab578063f9853713146101d457610086565b80630e4d82de1461008b57806315689aa7146100c857806327752084146100f1578063489a2de11461010d575b600080fd5b34801561009757600080fd5b506100b260048036038101906100ad9190610a30565b610211565b6040516100bf9190610af8565b60405180910390f35b3480156100d457600080fd5b506100ef60048036038101906100ea9190610a30565b6102ca565b005b61010b60048036038101906101069190610b50565b6103c5565b005b34801561011957600080fd5b50610134600480360381019061012f9190610a30565b61050e565b6040516101419190610bc7565b60405180910390f35b34801561015657600080fd5b50610171600480360381019061016c9190610c40565b61054b565b005b61018d60048036038101906101889190610c9c565b6106c5565b005b6101a960048036038101906101a49190610b50565b610773565b005b3480156101b757600080fd5b506101d260048036038101906101cd9190610a30565b610826565b005b3480156101e057600080fd5b506101fb60048036038101906101f69190610a30565b610869565b6040516102089190610d23565b60405180910390f35b606060006001836040516102259190610d7a565b9081526020016040518091039020905080600001805461024490610dc0565b80601f016020809104026020016040519081016040528092919081815260200182805461027090610dc0565b80156102bd5780601f10610292576101008083540402835291602001916102bd565b820191906000526020600020905b8154815290600101906020018083116102a057829003601f168201915b5050505050915050919050565b60006001826040516102dc9190610d7a565b9081526020016040518091039020905060008160020160003373ffffffffffffffffffffffffffffffffffffffff1673ffffffffffffffffffffffffffffffffffffffff1681526020019081526020016000205411610370576040517f08c379a000000000000000000000000000000000000000000000000000000000815260040161036790610e3d565b60405180910390fd5b61037a823361054b565b60008160020160003373ffffffffffffffffffffffffffffffffffffffff1673ffffffffffffffffffffffffffffffffffffffff168152602001908152602001600020819055505050565b60006001836040516103d79190610d7a565b9081526020016040518091039020905060008160020160003373ffffffffffffffffffffffffffffffffffffffff1673ffffffffffffffffffffffffffffffffffffffff168152602001908152602001600020541161046b576040517f08c379a000000000000000000000000000000000000000000000000000000000815260040161046290610e3d565b60405180910390fd5b818160020160003373ffffffffffffffffffffffffffffffffffffffff1673ffffffffffffffffffffffffffffffffffffffff16815260200190815260200160002081905550348160030160003373ffffffffffffffffffffffffffffffffffffffff1673ffffffffffffffffffffffffffffffffffffffff16815260200190815260200160002060008282546105029190610e8c565b92505081905550505050565b6000806001836040516105219190610d7a565b908152602001604051809103902090508060010160009054906101000a900460ff16915050919050565b600060018360405161055d9190610d7a565b9081526020016040518091039020905060008160020160003373ffffffffffffffffffffffffffffffffffffffff1673ffffffffffffffffffffffffffffffffffffffff16815260200190815260200160002054116105f1576040517f08c379a00000000000000000000000000000000000000000000000000000000081526004016105e890610e3d565b60405180910390fd5b8173ffffffffffffffffffffffffffffffffffffffff166108fc8260030160008573ffffffffffffffffffffffffffffffffffffffff1673ffffffffffffffffffffffffffffffffffffffff168152602001908152602001600020549081150290604051600060405180830381858888f19350505050158015610678573d6000803e3d6000fd5b5060008160030160008473ffffffffffffffffffffffffffffffffffffffff1673ffffffffffffffffffffffffffffffffffffffff16815260200190815260200160002081905550505050565b60006001836040516106d79190610d7a565b90815260200160405180910390209050818160000190816106f8919061106c565b5060018160010160006101000a81548160ff021916908315150217905550348160030160003373ffffffffffffffffffffffffffffffffffffffff1673ffffffffffffffffffffffffffffffffffffffff16815260200190815260200160002060008282546107679190610e8c565b92505081905550505050565b60006001836040516107859190610d7a565b90815260200160405180910390209050818160020160003373ffffffffffffffffffffffffffffffffffffffff1673ffffffffffffffffffffffffffffffffffffffff16815260200190815260200160002081905550348160030160003373ffffffffffffffffffffffffffffffffffffffff1673ffffffffffffffffffffffffffffffffffffffff16815260200190815260200160002081905550505050565b60006001826040516108389190610d7a565b9081526020016040518091039020905060008160010160006101000a81548160ff0219169083151502179055505050565b60008060018360405161087c9190610d7a565b908152602001604051809103902090508060020160003373ffffffffffffffffffffffffffffffffffffffff1673ffffffffffffffffffffffffffffffffffffffff16815260200190815260200160002054915050919050565b6000604051905090565b600080fd5b600080fd5b600080fd5b600080fd5b6000601f19601f8301169050919050565b7f4e487b7100000000000000000000000000000000000000000000000000000000600052604160045260246000fd5b61093d826108f4565b810181811067ffffffffffffffff8211171561095c5761095b610905565b5b80604052505050565b600061096f6108d6565b905061097b8282610934565b919050565b600067ffffffffffffffff82111561099b5761099a610905565b5b6109a4826108f4565b9050602081019050919050565b82818337600083830152505050565b60006109d36109ce84610980565b610965565b9050828152602081018484840111156109ef576109ee6108ef565b5b6109fa8482856109b1565b509392505050565b600082601f830112610a1757610a166108ea565b5b8135610a278482602086016109c0565b91505092915050565b600060208284031215610a4657610a456108e0565b5b600082013567ffffffffffffffff811115610a6457610a636108e5565b5b610a7084828501610a02565b91505092915050565b600081519050919050565b600082825260208201905092915050565b60005b83811015610ab3578082015181840152602081019050610a98565b60008484015250505050565b6000610aca82610a79565b610ad48185610a84565b9350610ae4818560208601610a95565b610aed816108f4565b840191505092915050565b60006020820190508181036000830152610b128184610abf565b905092915050565b6000819050919050565b610b2d81610b1a565b8114610b3857600080fd5b50565b600081359050610b4a81610b24565b92915050565b60008060408385031215610b6757610b666108e0565b5b600083013567ffffffffffffffff811115610b8557610b846108e5565b5b610b9185828601610a02565b9250506020610ba285828601610b3b565b9150509250929050565b60008115159050919050565b610bc181610bac565b82525050565b6000602082019050610bdc6000830184610bb8565b92915050565b600073ffffffffffffffffffffffffffffffffffffffff82169050919050565b6000610c0d82610be2565b9050919050565b610c1d81610c02565b8114610c2857600080fd5b50565b600081359050610c3a81610c14565b92915050565b60008060408385031215610c5757610c566108e0565b5b600083013567ffffffffffffffff811115610c7557610c746108e5565b5b610c8185828601610a02565b9250506020610c9285828601610c2b565b9150509250929050565b60008060408385031215610cb357610cb26108e0565b5b600083013567ffffffffffffffff811115610cd157610cd06108e5565b5b610cdd85828601610a02565b925050602083013567ffffffffffffffff811115610cfe57610cfd6108e5565b5b610d0a85828601610a02565b9150509250929050565b610d1d81610b1a565b82525050565b6000602082019050610d386000830184610d14565b92915050565b600081905092915050565b6000610d5482610a79565b610d5e8185610d3e565b9350610d6e818560208601610a95565b80840191505092915050565b6000610d868284610d49565b915081905092915050565b7f4e487b7100000000000000000000000000000000000000000000000000000000600052602260045260246000fd5b60006002820490506001821680610dd857607f821691505b602082108103610deb57610dea610d91565b5b50919050565b7f596f7520646f206e6f74206861766520616e206578697374696e672062696400600082015250565b6000610e27601f83610a84565b9150610e3282610df1565b602082019050919050565b60006020820190508181036000830152610e5681610e1a565b9050919050565b7f4e487b7100000000000000000000000000000000000000000000000000000000600052601160045260246000fd5b6000610e9782610b1a565b9150610ea283610b1a565b9250828201905080821115610eba57610eb9610e5d565b5b92915050565b60008190508160005260206000209050919050565b60006020601f8301049050919050565b600082821b905092915050565b600060088302610f227fffffffffffffffffffffffffffffffffffffffffffffffffffffffffffffffff82610ee5565b610f2c8683610ee5565b95508019841693508086168417925050509392505050565b6000819050919050565b6000610f69610f64610f5f84610b1a565b610f44565b610b1a565b9050919050565b6000819050919050565b610f8383610f4e565b610f97610f8f82610f70565b848454610ef2565b825550505050565b600090565b610fac610f9f565b610fb7818484610f7a565b505050565b5b81811015610fdb57610fd0600082610fa4565b600181019050610fbd565b5050565b601f82111561102057610ff181610ec0565b610ffa84610ed5565b81016020851015611009578190505b61101d61101585610ed5565b830182610fbc565b50505b505050565b600082821c905092915050565b600061104360001984600802611025565b1980831691505092915050565b600061105c8383611032565b9150826002028217905092915050565b61107582610a79565b67ffffffffffffffff81111561108e5761108d610905565b5b6110988254610dc0565b6110a3828285610fdf565b600060209050601f8311600181146110d657600084156110c4578287015190505b6110ce8582611050565b865550611136565b601f1984166110e486610ec0565b60005b8281101561110c578489015182556001820191506020850194506020810190506110e7565b868310156111295784890151611125601f891682611032565b8355505b6001600288020188555050505b50505050505056fea2646970667358221220ba2ba20bfef711edb00d8e157b932205e10312928e917b6ffdb2ddee495d483e64736f6c63430008180033",
  "devdoc": {
    "kind": "dev",
    "methods": {},
    "version": 1
  },
  "userdoc": {
    "kind": "user",
    "methods": {},
    "version": 1
  },
  "storageLayout": {
    "storage": [
      {
        "astId": 2963,
        "contract": "contracts/AuctionManager.sol:AuctionManager",
        "label": "propertyId",
        "offset": 0,
        "slot": "0",
        "type": "t_string_storage"
      },
      {
        "astId": 2968,
        "contract": "contracts/AuctionManager.sol:AuctionManager",
        "label": "propertyToAuction",
        "offset": 0,
        "slot": "1",
        "type": "t_mapping(t_string_memory_ptr,t_struct(Auction)2961_storage)"
      }
    ],
    "types": {
      "t_address": {
        "encoding": "inplace",
        "label": "address",
        "numberOfBytes": "20"
      },
      "t_bool": {
        "encoding": "inplace",
        "label": "bool",
        "numberOfBytes": "1"
      },
      "t_mapping(t_address,t_uint256)": {
        "encoding": "mapping",
        "key": "t_address",
        "label": "mapping(address => uint256)",
        "numberOfBytes": "32",
        "value": "t_uint256"
      },
      "t_mapping(t_string_memory_ptr,t_struct(Auction)2961_storage)": {
        "encoding": "mapping",
        "key": "t_string_memory_ptr",
        "label": "mapping(string => struct AuctionManager.Auction)",
        "numberOfBytes": "32",
        "value": "t_struct(Auction)2961_storage"
      },
      "t_string_memory_ptr": {
        "encoding": "bytes",
        "label": "string",
        "numberOfBytes": "32"
      },
      "t_string_storage": {
        "encoding": "bytes",
        "label": "string",
        "numberOfBytes": "32"
      },
      "t_struct(Auction)2961_storage": {
        "encoding": "inplace",
        "label": "struct AuctionManager.Auction",
        "members": [
          {
            "astId": 2950,
            "contract": "contracts/AuctionManager.sol:AuctionManager",
            "label": "propertyId",
            "offset": 0,
            "slot": "0",
            "type": "t_string_storage"
          },
          {
            "astId": 2952,
            "contract": "contracts/AuctionManager.sol:AuctionManager",
            "label": "isAuctionActive",
            "offset": 0,
            "slot": "1",
            "type": "t_bool"
          },
          {
            "astId": 2956,
            "contract": "contracts/AuctionManager.sol:AuctionManager",
            "label": "addressToBid",
            "offset": 0,
            "slot": "2",
            "type": "t_mapping(t_address,t_uint256)"
          },
          {
            "astId": 2960,
            "contract": "contracts/AuctionManager.sol:AuctionManager",
            "label": "addressToStake",
            "offset": 0,
            "slot": "3",
            "type": "t_mapping(t_address,t_uint256)"
          }
        ],
        "numberOfBytes": "128"
      },
      "t_uint256": {
        "encoding": "inplace",
        "label": "uint256",
        "numberOfBytes": "32"
      }
    }
  }
}