{
  "address": "0xe7f1725E7734CE288F8367e1Bb143E90bb3F0512",
  "abi": [
    {
      "inputs": [],
      "stateMutability": "nonpayable",
      "type": "constructor"
    },
    {
      "inputs": [
        {
          "internalType": "address",
          "name": "sender",
          "type": "address"
        },
        {
          "internalType": "uint256",
          "name": "tokenId",
          "type": "uint256"
        },
        {
          "internalType": "address",
          "name": "owner",
          "type": "address"
        }
      ],
      "name": "ERC721IncorrectOwner",
      "type": "error"
    },
    {
      "inputs": [
        {
          "internalType": "address",
          "name": "operator",
          "type": "address"
        },
        {
          "internalType": "uint256",
          "name": "tokenId",
          "type": "uint256"
        }
      ],
      "name": "ERC721InsufficientApproval",
      "type": "error"
    },
    {
      "inputs": [
        {
          "internalType": "address",
          "name": "approver",
          "type": "address"
        }
      ],
      "name": "ERC721InvalidApprover",
      "type": "error"
    },
    {
      "inputs": [
        {
          "internalType": "address",
          "name": "operator",
          "type": "address"
        }
      ],
      "name": "ERC721InvalidOperator",
      "type": "error"
    },
    {
      "inputs": [
        {
          "internalType": "address",
          "name": "owner",
          "type": "address"
        }
      ],
      "name": "ERC721InvalidOwner",
      "type": "error"
    },
    {
      "inputs": [
        {
          "internalType": "address",
          "name": "receiver",
          "type": "address"
        }
      ],
      "name": "ERC721InvalidReceiver",
      "type": "error"
    },
    {
      "inputs": [
        {
          "internalType": "address",
          "name": "sender",
          "type": "address"
        }
      ],
      "name": "ERC721InvalidSender",
      "type": "error"
    },
    {
      "inputs": [
        {
          "internalType": "uint256",
          "name": "tokenId",
          "type": "uint256"
        }
      ],
      "name": "ERC721NonexistentToken",
      "type": "error"
    },
    {
      "anonymous": false,
      "inputs": [
        {
          "indexed": true,
          "internalType": "address",
          "name": "owner",
          "type": "address"
        },
        {
          "indexed": true,
          "internalType": "address",
          "name": "approved",
          "type": "address"
        },
        {
          "indexed": true,
          "internalType": "uint256",
          "name": "tokenId",
          "type": "uint256"
        }
      ],
      "name": "Approval",
      "type": "event"
    },
    {
      "anonymous": false,
      "inputs": [
        {
          "indexed": true,
          "internalType": "address",
          "name": "owner",
          "type": "address"
        },
        {
          "indexed": true,
          "internalType": "address",
          "name": "operator",
          "type": "address"
        },
        {
          "indexed": false,
          "internalType": "bool",
          "name": "approved",
          "type": "bool"
        }
      ],
      "name": "ApprovalForAll",
      "type": "event"
    },
    {
      "anonymous": false,
      "inputs": [
        {
          "indexed": false,
          "internalType": "uint256",
          "name": "_fromTokenId",
          "type": "uint256"
        },
        {
          "indexed": false,
          "internalType": "uint256",
          "name": "_toTokenId",
          "type": "uint256"
        }
      ],
      "name": "BatchMetadataUpdate",
      "type": "event"
    },
    {
      "anonymous": false,
      "inputs": [
        {
          "indexed": false,
          "internalType": "uint256",
          "name": "_tokenId",
          "type": "uint256"
        }
      ],
      "name": "MetadataUpdate",
      "type": "event"
    },
    {
      "anonymous": false,
      "inputs": [
        {
          "indexed": true,
          "internalType": "address",
          "name": "from",
          "type": "address"
        },
        {
          "indexed": true,
          "internalType": "address",
          "name": "to",
          "type": "address"
        },
        {
          "indexed": true,
          "internalType": "uint256",
          "name": "tokenId",
          "type": "uint256"
        }
      ],
      "name": "Transfer",
      "type": "event"
    },
    {
      "inputs": [
        {
          "internalType": "address",
          "name": "to",
          "type": "address"
        },
        {
          "internalType": "uint256",
          "name": "tokenId",
          "type": "uint256"
        }
      ],
      "name": "approve",
      "outputs": [],
      "stateMutability": "nonpayable",
      "type": "function"
    },
    {
      "inputs": [
        {
          "internalType": "address",
          "name": "owner",
          "type": "address"
        }
      ],
      "name": "balanceOf",
      "outputs": [
        {
          "internalType": "uint256",
          "name": "",
          "type": "uint256"
        }
      ],
      "stateMutability": "view",
      "type": "function"
    },
    {
      "inputs": [
        {
          "internalType": "uint256",
          "name": "tokenId",
          "type": "uint256"
        }
      ],
      "name": "getApproved",
      "outputs": [
        {
          "internalType": "address",
          "name": "",
          "type": "address"
        }
      ],
      "stateMutability": "view",
      "type": "function"
    },
    {
      "inputs": [
        {
          "internalType": "string",
          "name": "_propertyId",
          "type": "string"
        }
      ],
      "name": "getTokenId",
      "outputs": [
        {
          "internalType": "uint256",
          "name": "",
          "type": "uint256"
        }
      ],
      "stateMutability": "view",
      "type": "function"
    },
    {
      "inputs": [
        {
          "internalType": "address",
          "name": "owner",
          "type": "address"
        },
        {
          "internalType": "address",
          "name": "operator",
          "type": "address"
        }
      ],
      "name": "isApprovedForAll",
      "outputs": [
        {
          "internalType": "bool",
          "name": "",
          "type": "bool"
        }
      ],
      "stateMutability": "view",
      "type": "function"
    },
    {
      "inputs": [
        {
          "internalType": "string",
          "name": "_propertyId",
          "type": "string"
        },
        {
          "internalType": "string",
          "name": "tokenURI",
          "type": "string"
        }
      ],
      "name": "mintProperty",
      "outputs": [
        {
          "internalType": "uint256",
          "name": "",
          "type": "uint256"
        }
      ],
      "stateMutability": "nonpayable",
      "type": "function"
    },
    {
      "inputs": [],
      "name": "name",
      "outputs": [
        {
          "internalType": "string",
          "name": "",
          "type": "string"
        }
      ],
      "stateMutability": "view",
      "type": "function"
    },
    {
      "inputs": [
        {
          "internalType": "uint256",
          "name": "tokenId",
          "type": "uint256"
        }
      ],
      "name": "ownerOf",
      "outputs": [
        {
          "internalType": "address",
          "name": "",
          "type": "address"
        }
      ],
      "stateMutability": "view",
      "type": "function"
    },
    {
      "inputs": [
        {
          "internalType": "string",
          "name": "_propertyId",
          "type": "string"
        }
      ],
      "name": "ownerOfNFT",
      "outputs": [
        {
          "internalType": "address",
          "name": "",
          "type": "address"
        }
      ],
      "stateMutability": "view",
      "type": "function"
    },
    {
      "inputs": [
        {
          "internalType": "address",
          "name": "from",
          "type": "address"
        },
        {
          "internalType": "address",
          "name": "to",
          "type": "address"
        },
        {
          "internalType": "uint256",
          "name": "tokenId",
          "type": "uint256"
        }
      ],
      "name": "safeTransferFrom",
      "outputs": [],
      "stateMutability": "nonpayable",
      "type": "function"
    },
    {
      "inputs": [
        {
          "internalType": "address",
          "name": "from",
          "type": "address"
        },
        {
          "internalType": "address",
          "name": "to",
          "type": "address"
        },
        {
          "internalType": "uint256",
          "name": "tokenId",
          "type": "uint256"
        },
        {
          "internalType": "bytes",
          "name": "data",
          "type": "bytes"
        }
      ],
      "name": "safeTransferFrom",
      "outputs": [],
      "stateMutability": "nonpayable",
      "type": "function"
    },
    {
      "inputs": [
        {
          "internalType": "address",
          "name": "operator",
          "type": "address"
        },
        {
          "internalType": "bool",
          "name": "approved",
          "type": "bool"
        }
      ],
      "name": "setApprovalForAll",
      "outputs": [],
      "stateMutability": "nonpayable",
      "type": "function"
    },
    {
      "inputs": [
        {
          "internalType": "bytes4",
          "name": "interfaceId",
          "type": "bytes4"
        }
      ],
      "name": "supportsInterface",
      "outputs": [
        {
          "internalType": "bool",
          "name": "",
          "type": "bool"
        }
      ],
      "stateMutability": "view",
      "type": "function"
    },
    {
      "inputs": [],
      "name": "symbol",
      "outputs": [
        {
          "internalType": "string",
          "name": "",
          "type": "string"
        }
      ],
      "stateMutability": "view",
      "type": "function"
    },
    {
      "inputs": [
        {
          "internalType": "uint256",
          "name": "tokenId",
          "type": "uint256"
        }
      ],
      "name": "tokenURI",
      "outputs": [
        {
          "internalType": "string",
          "name": "",
          "type": "string"
        }
      ],
      "stateMutability": "view",
      "type": "function"
    },
    {
      "inputs": [
        {
          "internalType": "address",
          "name": "from",
          "type": "address"
        },
        {
          "internalType": "address",
          "name": "to",
          "type": "address"
        },
        {
          "internalType": "uint256",
          "name": "tokenId",
          "type": "uint256"
        }
      ],
      "name": "transferFrom",
      "outputs": [],
      "stateMutability": "nonpayable",
      "type": "function"
    }
  ],
  "transactionHash": "0x3b6eb2249629ecd9798ee9ab082b0b41dbb1447fe53cee676c8c16b5d2c43014",
  "args": [],
  "numDeployments": 1,
  "solcInputHash": "6c094be77ea9d19ff5404d90a8b26fa1",
  "bytecode": "0x608060405260006007553480156200001657600080fd5b506040518060400160405280600a81526020017f486f6d654c6564676572000000000000000000000000000000000000000000008152506040518060400160405280600481526020017f484f4d4500000000000000000000000000000000000000000000000000000000815250816000908162000094919062000329565b508060019081620000a6919062000329565b50505062000410565b600081519050919050565b7f4e487b7100000000000000000000000000000000000000000000000000000000600052604160045260246000fd5b7f4e487b7100000000000000000000000000000000000000000000000000000000600052602260045260246000fd5b600060028204905060018216806200013157607f821691505b602082108103620001475762000146620000e9565b5b50919050565b60008190508160005260206000209050919050565b60006020601f8301049050919050565b600082821b905092915050565b600060088302620001b17fffffffffffffffffffffffffffffffffffffffffffffffffffffffffffffffff8262000172565b620001bd868362000172565b95508019841693508086168417925050509392505050565b6000819050919050565b6000819050919050565b60006200020a62000204620001fe84620001d5565b620001df565b620001d5565b9050919050565b6000819050919050565b6200022683620001e9565b6200023e620002358262000211565b8484546200017f565b825550505050565b600090565b6200025562000246565b620002628184846200021b565b505050565b5b818110156200028a576200027e6000826200024b565b60018101905062000268565b5050565b601f821115620002d957620002a3816200014d565b620002ae8462000162565b81016020851015620002be578190505b620002d6620002cd8562000162565b83018262000267565b50505b505050565b600082821c905092915050565b6000620002fe60001984600802620002de565b1980831691505092915050565b6000620003198383620002eb565b9150826002028217905092915050565b6200033482620000af565b67ffffffffffffffff81111562000350576200034f620000ba565b5b6200035c825462000118565b620003698282856200028e565b600060209050601f831160018114620003a157600084156200038c578287015190505b6200039885826200030b565b86555062000408565b601f198416620003b1866200014d565b60005b82811015620003db57848901518255600182019150602085019450602081019050620003b4565b86831015620003fb5784890151620003f7601f891682620002eb565b8355505b6001600288020188555050505b505050505050565b61252180620004206000396000f3fe608060405234801561001057600080fd5b50600436106101005760003560e01c80636352211e11610097578063b7d461a711610066578063b7d461a7146102d1578063b88d4fde14610301578063c87b56dd1461031d578063e985e9c51461034d57610100565b80636352211e1461023757806370a082311461026757806395d89b4114610297578063a22cb465146102b557610100565b80631e7663bc116100d35780631e7663bc1461019f57806323b872dd146101cf57806342842e0e146101eb57806353e438d81461020757610100565b806301ffc9a71461010557806306fdde0314610135578063081812fc14610153578063095ea7b314610183575b600080fd5b61011f600480360381019061011a9190611911565b61037d565b60405161012c9190611959565b60405180910390f35b61013d6103de565b60405161014a9190611a04565b60405180910390f35b61016d60048036038101906101689190611a5c565b610470565b60405161017a9190611aca565b60405180910390f35b61019d60048036038101906101989190611b11565b61048c565b005b6101b960048036038101906101b49190611c86565b6104a2565b6040516101c69190611cde565b60405180910390f35b6101e960048036038101906101e49190611cf9565b6104ca565b005b61020560048036038101906102009190611cf9565b6105cc565b005b610221600480360381019061021c9190611c86565b6105ec565b60405161022e9190611aca565b60405180910390f35b610251600480360381019061024c9190611a5c565b61061c565b60405161025e9190611aca565b60405180910390f35b610281600480360381019061027c9190611d4c565b61062e565b60405161028e9190611cde565b60405180910390f35b61029f6106e8565b6040516102ac9190611a04565b60405180910390f35b6102cf60048036038101906102ca9190611da5565b61077a565b005b6102eb60048036038101906102e69190611de5565b610790565b6040516102f89190611cde565b60405180910390f35b61031b60048036038101906103169190611efe565b6107f9565b005b61033760048036038101906103329190611a5c565b610816565b6040516103449190611a04565b60405180910390f35b61036760048036038101906103629190611f81565b610929565b6040516103749190611959565b60405180910390f35b6000634906490660e01b7bffffffffffffffffffffffffffffffffffffffffffffffffffffffff1916827bffffffffffffffffffffffffffffffffffffffffffffffffffffffff191614806103d757506103d6826109bd565b5b9050919050565b6060600080546103ed90611ff0565b80601f016020809104026020016040519081016040528092919081815260200182805461041990611ff0565b80156104665780601f1061043b57610100808354040283529160200191610466565b820191906000526020600020905b81548152906001019060200180831161044957829003601f168201915b5050505050905090565b600061047b82610a9f565b5061048582610b27565b9050919050565b61049e8282610499610b64565b610b6c565b5050565b60006008826040516104b4919061205d565b9081526020016040518091039020549050919050565b600073ffffffffffffffffffffffffffffffffffffffff168273ffffffffffffffffffffffffffffffffffffffff160361053c5760006040517f64a0ae920000000000000000000000000000000000000000000000000000000081526004016105339190611aca565b60405180910390fd5b6000610550838361054b610b64565b610b7e565b90508373ffffffffffffffffffffffffffffffffffffffff168173ffffffffffffffffffffffffffffffffffffffff16146105c6578382826040517f64283d7b0000000000000000000000000000000000000000000000000000000081526004016105bd93929190612074565b60405180910390fd5b50505050565b6105e7838383604051806020016040528060008152506107f9565b505050565b6000610615600883604051610601919061205d565b90815260200160405180910390205461061c565b9050919050565b600061062782610a9f565b9050919050565b60008073ffffffffffffffffffffffffffffffffffffffff168273ffffffffffffffffffffffffffffffffffffffff16036106a15760006040517f89c62b640000000000000000000000000000000000000000000000000000000081526004016106989190611aca565b60405180910390fd5b600360008373ffffffffffffffffffffffffffffffffffffffff1673ffffffffffffffffffffffffffffffffffffffff168152602001908152602001600020549050919050565b6060600180546106f790611ff0565b80601f016020809104026020016040519081016040528092919081815260200182805461072390611ff0565b80156107705780601f1061074557610100808354040283529160200191610770565b820191906000526020600020905b81548152906001019060200180831161075357829003601f168201915b5050505050905090565b61078c610785610b64565b8383610d98565b5050565b60006001600760008282546107a591906120da565b9250508190556007819055506007546008846040516107c4919061205d565b9081526020016040518091039020819055506107e233600754610f07565b6107ee60075483611000565b600754905092915050565b6108048484846104ca565b6108108484848461105c565b50505050565b606061082182610a9f565b50600060066000848152602001908152602001600020805461084290611ff0565b80601f016020809104026020016040519081016040528092919081815260200182805461086e90611ff0565b80156108bb5780601f10610890576101008083540402835291602001916108bb565b820191906000526020600020905b81548152906001019060200180831161089e57829003601f168201915b5050505050905060006108cc611213565b905060008151036108e1578192505050610924565b6000825111156109165780826040516020016108fe92919061210e565b60405160208183030381529060405292505050610924565b61091f8461122a565b925050505b919050565b6000600560008473ffffffffffffffffffffffffffffffffffffffff1673ffffffffffffffffffffffffffffffffffffffff16815260200190815260200160002060008373ffffffffffffffffffffffffffffffffffffffff1673ffffffffffffffffffffffffffffffffffffffff16815260200190815260200160002060009054906101000a900460ff16905092915050565b60007f80ac58cd000000000000000000000000000000000000000000000000000000007bffffffffffffffffffffffffffffffffffffffffffffffffffffffff1916827bffffffffffffffffffffffffffffffffffffffffffffffffffffffff19161480610a8857507f5b5e139f000000000000000000000000000000000000000000000000000000007bffffffffffffffffffffffffffffffffffffffffffffffffffffffff1916827bffffffffffffffffffffffffffffffffffffffffffffffffffffffff1916145b80610a985750610a9782611293565b5b9050919050565b600080610aab836112fd565b9050600073ffffffffffffffffffffffffffffffffffffffff168173ffffffffffffffffffffffffffffffffffffffff1603610b1e57826040517f7e273289000000000000000000000000000000000000000000000000000000008152600401610b159190611cde565b60405180910390fd5b80915050919050565b60006004600083815260200190815260200160002060009054906101000a900473ffffffffffffffffffffffffffffffffffffffff169050919050565b600033905090565b610b79838383600161133a565b505050565b600080610b8a846112fd565b9050600073ffffffffffffffffffffffffffffffffffffffff168373ffffffffffffffffffffffffffffffffffffffff1614610bcc57610bcb8184866114ff565b5b600073ffffffffffffffffffffffffffffffffffffffff168173ffffffffffffffffffffffffffffffffffffffff1614610c5d57610c0e60008560008061133a565b6001600360008373ffffffffffffffffffffffffffffffffffffffff1673ffffffffffffffffffffffffffffffffffffffff168152602001908152602001600020600082825403925050819055505b600073ffffffffffffffffffffffffffffffffffffffff168573ffffffffffffffffffffffffffffffffffffffff1614610ce0576001600360008773ffffffffffffffffffffffffffffffffffffffff1673ffffffffffffffffffffffffffffffffffffffff168152602001908152602001600020600082825401925050819055505b846002600086815260200190815260200160002060006101000a81548173ffffffffffffffffffffffffffffffffffffffff021916908373ffffffffffffffffffffffffffffffffffffffff160217905550838573ffffffffffffffffffffffffffffffffffffffff168273ffffffffffffffffffffffffffffffffffffffff167fddf252ad1be2c89b69c2b068fc378daa952ba7f163c4a11628f55a4df523b3ef60405160405180910390a4809150509392505050565b600073ffffffffffffffffffffffffffffffffffffffff168273ffffffffffffffffffffffffffffffffffffffff1603610e0957816040517f5b08ba18000000000000000000000000000000000000000000000000000000008152600401610e009190611aca565b60405180910390fd5b80600560008573ffffffffffffffffffffffffffffffffffffffff1673ffffffffffffffffffffffffffffffffffffffff16815260200190815260200160002060008473ffffffffffffffffffffffffffffffffffffffff1673ffffffffffffffffffffffffffffffffffffffff16815260200190815260200160002060006101000a81548160ff0219169083151502179055508173ffffffffffffffffffffffffffffffffffffffff168373ffffffffffffffffffffffffffffffffffffffff167f17307eab39ab6107e8899845ad3d59bd9653f200f220920489ca2b5937696c3183604051610efa9190611959565b60405180910390a3505050565b600073ffffffffffffffffffffffffffffffffffffffff168273ffffffffffffffffffffffffffffffffffffffff1603610f795760006040517f64a0ae92000000000000000000000000000000000000000000000000000000008152600401610f709190611aca565b60405180910390fd5b6000610f8783836000610b7e565b9050600073ffffffffffffffffffffffffffffffffffffffff168173ffffffffffffffffffffffffffffffffffffffff1614610ffb5760006040517f73c6ac6e000000000000000000000000000000000000000000000000000000008152600401610ff29190611aca565b60405180910390fd5b505050565b8060066000848152602001908152602001600020908161102091906122de565b507ff8e1a15aba9398e019f0b49df1a4fde98ee17ae345cb5f6b5e2c27f5033e8ce7826040516110509190611cde565b60405180910390a15050565b60008373ffffffffffffffffffffffffffffffffffffffff163b111561120d578273ffffffffffffffffffffffffffffffffffffffff1663150b7a026110a0610b64565b8685856040518563ffffffff1660e01b81526004016110c29493929190612405565b6020604051808303816000875af19250505080156110fe57506040513d601f19601f820116820180604052508101906110fb9190612466565b60015b611182573d806000811461112e576040519150601f19603f3d011682016040523d82523d6000602084013e611133565b606091505b50600081510361117a57836040517f64a0ae920000000000000000000000000000000000000000000000000000000081526004016111719190611aca565b60405180910390fd5b805181602001fd5b63150b7a0260e01b7bffffffffffffffffffffffffffffffffffffffffffffffffffffffff1916817bffffffffffffffffffffffffffffffffffffffffffffffffffffffff19161461120b57836040517f64a0ae920000000000000000000000000000000000000000000000000000000081526004016112029190611aca565b60405180910390fd5b505b50505050565b606060405180602001604052806000815250905090565b606061123582610a9f565b506000611240611213565b90506000815111611260576040518060200160405280600081525061128b565b8061126a846115c3565b60405160200161127b92919061210e565b6040516020818303038152906040525b915050919050565b60007f01ffc9a7000000000000000000000000000000000000000000000000000000007bffffffffffffffffffffffffffffffffffffffffffffffffffffffff1916827bffffffffffffffffffffffffffffffffffffffffffffffffffffffff1916149050919050565b60006002600083815260200190815260200160002060009054906101000a900473ffffffffffffffffffffffffffffffffffffffff169050919050565b80806113735750600073ffffffffffffffffffffffffffffffffffffffff168273ffffffffffffffffffffffffffffffffffffffff1614155b156114a757600061138384610a9f565b9050600073ffffffffffffffffffffffffffffffffffffffff168373ffffffffffffffffffffffffffffffffffffffff16141580156113ee57508273ffffffffffffffffffffffffffffffffffffffff168173ffffffffffffffffffffffffffffffffffffffff1614155b801561140157506113ff8184610929565b155b1561144357826040517fa9fbf51f00000000000000000000000000000000000000000000000000000000815260040161143a9190611aca565b60405180910390fd5b81156114a557838573ffffffffffffffffffffffffffffffffffffffff168273ffffffffffffffffffffffffffffffffffffffff167f8c5be1e5ebec7d5bd14f71427d1e84f3dd0314c0f7b2291e5b200ac8c7c3b92560405160405180910390a45b505b836004600085815260200190815260200160002060006101000a81548173ffffffffffffffffffffffffffffffffffffffff021916908373ffffffffffffffffffffffffffffffffffffffff16021790555050505050565b61150a838383611691565b6115be57600073ffffffffffffffffffffffffffffffffffffffff168373ffffffffffffffffffffffffffffffffffffffff160361157f57806040517f7e2732890000000000000000000000000000000000000000000000000000000081526004016115769190611cde565b60405180910390fd5b81816040517f177e802f0000000000000000000000000000000000000000000000000000000081526004016115b5929190612493565b60405180910390fd5b505050565b6060600060016115d284611752565b01905060008167ffffffffffffffff8111156115f1576115f0611b5b565b5b6040519080825280601f01601f1916602001820160405280156116235781602001600182028036833780820191505090505b509050600082602001820190505b600115611686578080600190039150507f3031323334353637383961626364656600000000000000000000000000000000600a86061a8153600a858161167a576116796124bc565b5b04945060008503611631575b819350505050919050565b60008073ffffffffffffffffffffffffffffffffffffffff168373ffffffffffffffffffffffffffffffffffffffff161415801561174957508273ffffffffffffffffffffffffffffffffffffffff168473ffffffffffffffffffffffffffffffffffffffff16148061170a57506117098484610929565b5b8061174857508273ffffffffffffffffffffffffffffffffffffffff1661173083610b27565b73ffffffffffffffffffffffffffffffffffffffff16145b5b90509392505050565b600080600090507a184f03e93ff9f4daa797ed6e38ed64bf6a1f01000000000000000083106117b0577a184f03e93ff9f4daa797ed6e38ed64bf6a1f01000000000000000083816117a6576117a56124bc565b5b0492506040810190505b6d04ee2d6d415b85acef810000000083106117ed576d04ee2d6d415b85acef810000000083816117e3576117e26124bc565b5b0492506020810190505b662386f26fc10000831061181c57662386f26fc100008381611812576118116124bc565b5b0492506010810190505b6305f5e1008310611845576305f5e100838161183b5761183a6124bc565b5b0492506008810190505b612710831061186a5761271083816118605761185f6124bc565b5b0492506004810190505b6064831061188d5760648381611883576118826124bc565b5b0492506002810190505b600a831061189c576001810190505b80915050919050565b6000604051905090565b600080fd5b600080fd5b60007fffffffff0000000000000000000000000000000000000000000000000000000082169050919050565b6118ee816118b9565b81146118f957600080fd5b50565b60008135905061190b816118e5565b92915050565b600060208284031215611927576119266118af565b5b6000611935848285016118fc565b91505092915050565b60008115159050919050565b6119538161193e565b82525050565b600060208201905061196e600083018461194a565b92915050565b600081519050919050565b600082825260208201905092915050565b60005b838110156119ae578082015181840152602081019050611993565b60008484015250505050565b6000601f19601f8301169050919050565b60006119d682611974565b6119e0818561197f565b93506119f0818560208601611990565b6119f9816119ba565b840191505092915050565b60006020820190508181036000830152611a1e81846119cb565b905092915050565b6000819050919050565b611a3981611a26565b8114611a4457600080fd5b50565b600081359050611a5681611a30565b92915050565b600060208284031215611a7257611a716118af565b5b6000611a8084828501611a47565b91505092915050565b600073ffffffffffffffffffffffffffffffffffffffff82169050919050565b6000611ab482611a89565b9050919050565b611ac481611aa9565b82525050565b6000602082019050611adf6000830184611abb565b92915050565b611aee81611aa9565b8114611af957600080fd5b50565b600081359050611b0b81611ae5565b92915050565b60008060408385031215611b2857611b276118af565b5b6000611b3685828601611afc565b9250506020611b4785828601611a47565b9150509250929050565b600080fd5b600080fd5b7f4e487b7100000000000000000000000000000000000000000000000000000000600052604160045260246000fd5b611b93826119ba565b810181811067ffffffffffffffff82111715611bb257611bb1611b5b565b5b80604052505050565b6000611bc56118a5565b9050611bd18282611b8a565b919050565b600067ffffffffffffffff821115611bf157611bf0611b5b565b5b611bfa826119ba565b9050602081019050919050565b82818337600083830152505050565b6000611c29611c2484611bd6565b611bbb565b905082815260208101848484011115611c4557611c44611b56565b5b611c50848285611c07565b509392505050565b600082601f830112611c6d57611c6c611b51565b5b8135611c7d848260208601611c16565b91505092915050565b600060208284031215611c9c57611c9b6118af565b5b600082013567ffffffffffffffff811115611cba57611cb96118b4565b5b611cc684828501611c58565b91505092915050565b611cd881611a26565b82525050565b6000602082019050611cf36000830184611ccf565b92915050565b600080600060608486031215611d1257611d116118af565b5b6000611d2086828701611afc565b9350506020611d3186828701611afc565b9250506040611d4286828701611a47565b9150509250925092565b600060208284031215611d6257611d616118af565b5b6000611d7084828501611afc565b91505092915050565b611d828161193e565b8114611d8d57600080fd5b50565b600081359050611d9f81611d79565b92915050565b60008060408385031215611dbc57611dbb6118af565b5b6000611dca85828601611afc565b9250506020611ddb85828601611d90565b9150509250929050565b60008060408385031215611dfc57611dfb6118af565b5b600083013567ffffffffffffffff811115611e1a57611e196118b4565b5b611e2685828601611c58565b925050602083013567ffffffffffffffff811115611e4757611e466118b4565b5b611e5385828601611c58565b9150509250929050565b600067ffffffffffffffff821115611e7857611e77611b5b565b5b611e81826119ba565b9050602081019050919050565b6000611ea1611e9c84611e5d565b611bbb565b905082815260208101848484011115611ebd57611ebc611b56565b5b611ec8848285611c07565b509392505050565b600082601f830112611ee557611ee4611b51565b5b8135611ef5848260208601611e8e565b91505092915050565b60008060008060808587031215611f1857611f176118af565b5b6000611f2687828801611afc565b9450506020611f3787828801611afc565b9350506040611f4887828801611a47565b925050606085013567ffffffffffffffff811115611f6957611f686118b4565b5b611f7587828801611ed0565b91505092959194509250565b60008060408385031215611f9857611f976118af565b5b6000611fa685828601611afc565b9250506020611fb785828601611afc565b9150509250929050565b7f4e487b7100000000000000000000000000000000000000000000000000000000600052602260045260246000fd5b6000600282049050600182168061200857607f821691505b60208210810361201b5761201a611fc1565b5b50919050565b600081905092915050565b600061203782611974565b6120418185612021565b9350612051818560208601611990565b80840191505092915050565b6000612069828461202c565b915081905092915050565b60006060820190506120896000830186611abb565b6120966020830185611ccf565b6120a36040830184611abb565b949350505050565b7f4e487b7100000000000000000000000000000000000000000000000000000000600052601160045260246000fd5b60006120e582611a26565b91506120f083611a26565b9250828201905080821115612108576121076120ab565b5b92915050565b600061211a828561202c565b9150612126828461202c565b91508190509392505050565b60008190508160005260206000209050919050565b60006020601f8301049050919050565b600082821b905092915050565b6000600883026121947fffffffffffffffffffffffffffffffffffffffffffffffffffffffffffffffff82612157565b61219e8683612157565b95508019841693508086168417925050509392505050565b6000819050919050565b60006121db6121d66121d184611a26565b6121b6565b611a26565b9050919050565b6000819050919050565b6121f5836121c0565b612209612201826121e2565b848454612164565b825550505050565b600090565b61221e612211565b6122298184846121ec565b505050565b5b8181101561224d57612242600082612216565b60018101905061222f565b5050565b601f8211156122925761226381612132565b61226c84612147565b8101602085101561227b578190505b61228f61228785612147565b83018261222e565b50505b505050565b600082821c905092915050565b60006122b560001984600802612297565b1980831691505092915050565b60006122ce83836122a4565b9150826002028217905092915050565b6122e782611974565b67ffffffffffffffff811115612300576122ff611b5b565b5b61230a8254611ff0565b612315828285612251565b600060209050601f8311600181146123485760008415612336578287015190505b61234085826122c2565b8655506123a8565b601f19841661235686612132565b60005b8281101561237e57848901518255600182019150602085019450602081019050612359565b8683101561239b5784890151612397601f8916826122a4565b8355505b6001600288020188555050505b505050505050565b600081519050919050565b600082825260208201905092915050565b60006123d7826123b0565b6123e181856123bb565b93506123f1818560208601611990565b6123fa816119ba565b840191505092915050565b600060808201905061241a6000830187611abb565b6124276020830186611abb565b6124346040830185611ccf565b818103606083015261244681846123cc565b905095945050505050565b600081519050612460816118e5565b92915050565b60006020828403121561247c5761247b6118af565b5b600061248a84828501612451565b91505092915050565b60006040820190506124a86000830185611abb565b6124b56020830184611ccf565b9392505050565b7f4e487b7100000000000000000000000000000000000000000000000000000000600052601260045260246000fdfea2646970667358221220972ef282d7515ecf08f7bdf71ada2932dae033259fdae4e28f4cd57fd1b1eef064736f6c63430008180033",
  "devdoc": {
    "errors": {
      "ERC721IncorrectOwner(address,uint256,address)": [
        {
          "details": "Indicates an error related to the ownership over a particular token. Used in transfers.",
          "params": {
            "owner": "Address of the current owner of a token.",
            "sender": "Address whose tokens are being transferred.",
            "tokenId": "Identifier number of a token."
          }
        }
      ],
      "ERC721InsufficientApproval(address,uint256)": [
        {
          "details": "Indicates a failure with the `operator`s approval. Used in transfers.",
          "params": {
            "operator": "Address that may be allowed to operate on tokens without being their owner.",
            "tokenId": "Identifier number of a token."
          }
        }
      ],
      "ERC721InvalidApprover(address)": [
        {
          "details": "Indicates a failure with the `approver` of a token to be approved. Used in approvals.",
          "params": {
            "approver": "Address initiating an approval operation."
          }
        }
      ],
      "ERC721InvalidOperator(address)": [
        {
          "details": "Indicates a failure with the `operator` to be approved. Used in approvals.",
          "params": {
            "operator": "Address that may be allowed to operate on tokens without being their owner."
          }
        }
      ],
      "ERC721InvalidOwner(address)": [
        {
          "details": "Indicates that an address can't be an owner. For example, `address(0)` is a forbidden owner in EIP-20. Used in balance queries.",
          "params": {
            "owner": "Address of the current owner of a token."
          }
        }
      ],
      "ERC721InvalidReceiver(address)": [
        {
          "details": "Indicates a failure with the token `receiver`. Used in transfers.",
          "params": {
            "receiver": "Address to which tokens are being transferred."
          }
        }
      ],
      "ERC721InvalidSender(address)": [
        {
          "details": "Indicates a failure with the token `sender`. Used in transfers.",
          "params": {
            "sender": "Address whose tokens are being transferred."
          }
        }
      ],
      "ERC721NonexistentToken(uint256)": [
        {
          "details": "Indicates a `tokenId` whose `owner` is the zero address.",
          "params": {
            "tokenId": "Identifier number of a token."
          }
        }
      ]
    },
    "events": {
      "Approval(address,address,uint256)": {
        "details": "Emitted when `owner` enables `approved` to manage the `tokenId` token."
      },
      "ApprovalForAll(address,address,bool)": {
        "details": "Emitted when `owner` enables or disables (`approved`) `operator` to manage all of its assets."
      },
      "BatchMetadataUpdate(uint256,uint256)": {
        "details": "This event emits when the metadata of a range of tokens is changed. So that the third-party platforms such as NFT market could timely update the images and related attributes of the NFTs."
      },
      "MetadataUpdate(uint256)": {
        "details": "This event emits when the metadata of a token is changed. So that the third-party platforms such as NFT market could timely update the images and related attributes of the NFT."
      },
      "Transfer(address,address,uint256)": {
        "details": "Emitted when `tokenId` token is transferred from `from` to `to`."
      }
    },
    "kind": "dev",
    "methods": {
      "approve(address,uint256)": {
        "details": "See {IERC721-approve}."
      },
      "balanceOf(address)": {
        "details": "See {IERC721-balanceOf}."
      },
      "getApproved(uint256)": {
        "details": "See {IERC721-getApproved}."
      },
      "isApprovedForAll(address,address)": {
        "details": "See {IERC721-isApprovedForAll}."
      },
      "name()": {
        "details": "See {IERC721Metadata-name}."
      },
      "ownerOf(uint256)": {
        "details": "See {IERC721-ownerOf}."
      },
      "safeTransferFrom(address,address,uint256)": {
        "details": "See {IERC721-safeTransferFrom}."
      },
      "safeTransferFrom(address,address,uint256,bytes)": {
        "details": "See {IERC721-safeTransferFrom}."
      },
      "setApprovalForAll(address,bool)": {
        "details": "See {IERC721-setApprovalForAll}."
      },
      "supportsInterface(bytes4)": {
        "details": "See {IERC165-supportsInterface}"
      },
      "symbol()": {
        "details": "See {IERC721Metadata-symbol}."
      },
      "tokenURI(uint256)": {
        "details": "See {IERC721Metadata-tokenURI}."
      },
      "transferFrom(address,address,uint256)": {
        "details": "See {IERC721-transferFrom}."
      }
    },
    "version": 1
  },
  "userdoc": {
    "kind": "user",
    "methods": {},
    "version": 1
  },
  "storageLayout": {
    "storage": [
      {
        "astId": 201,
        "contract": "contracts/PropertyNFT.sol:PropertyNFT",
        "label": "_name",
        "offset": 0,
        "slot": "0",
        "type": "t_string_storage"
      },
      {
        "astId": 203,
        "contract": "contracts/PropertyNFT.sol:PropertyNFT",
        "label": "_symbol",
        "offset": 0,
        "slot": "1",
        "type": "t_string_storage"
      },
      {
        "astId": 207,
        "contract": "contracts/PropertyNFT.sol:PropertyNFT",
        "label": "_owners",
        "offset": 0,
        "slot": "2",
        "type": "t_mapping(t_uint256,t_address)"
      },
      {
        "astId": 211,
        "contract": "contracts/PropertyNFT.sol:PropertyNFT",
        "label": "_balances",
        "offset": 0,
        "slot": "3",
        "type": "t_mapping(t_address,t_uint256)"
      },
      {
        "astId": 215,
        "contract": "contracts/PropertyNFT.sol:PropertyNFT",
        "label": "_tokenApprovals",
        "offset": 0,
        "slot": "4",
        "type": "t_mapping(t_uint256,t_address)"
      },
      {
        "astId": 221,
        "contract": "contracts/PropertyNFT.sol:PropertyNFT",
        "label": "_operatorApprovals",
        "offset": 0,
        "slot": "5",
        "type": "t_mapping(t_address,t_mapping(t_address,t_bool))"
      },
      {
        "astId": 1340,
        "contract": "contracts/PropertyNFT.sol:PropertyNFT",
        "label": "_tokenURIs",
        "offset": 0,
        "slot": "6",
        "type": "t_mapping(t_uint256,t_string_storage)"
      },
      {
        "astId": 3377,
        "contract": "contracts/PropertyNFT.sol:PropertyNFT",
        "label": "tokenId",
        "offset": 0,
        "slot": "7",
        "type": "t_uint256"
      },
      {
        "astId": 3381,
        "contract": "contracts/PropertyNFT.sol:PropertyNFT",
        "label": "propertyIdToTokenId",
        "offset": 0,
        "slot": "8",
        "type": "t_mapping(t_string_memory_ptr,t_uint256)"
      }
    ],
    "types": {
      "t_address": {
        "encoding": "inplace",
        "label": "address",
        "numberOfBytes": "20"
      },
      "t_bool": {
        "encoding": "inplace",
        "label": "bool",
        "numberOfBytes": "1"
      },
      "t_mapping(t_address,t_bool)": {
        "encoding": "mapping",
        "key": "t_address",
        "label": "mapping(address => bool)",
        "numberOfBytes": "32",
        "value": "t_bool"
      },
      "t_mapping(t_address,t_mapping(t_address,t_bool))": {
        "encoding": "mapping",
        "key": "t_address",
        "label": "mapping(address => mapping(address => bool))",
        "numberOfBytes": "32",
        "value": "t_mapping(t_address,t_bool)"
      },
      "t_mapping(t_address,t_uint256)": {
        "encoding": "mapping",
        "key": "t_address",
        "label": "mapping(address => uint256)",
        "numberOfBytes": "32",
        "value": "t_uint256"
      },
      "t_mapping(t_string_memory_ptr,t_uint256)": {
        "encoding": "mapping",
        "key": "t_string_memory_ptr",
        "label": "mapping(string => uint256)",
        "numberOfBytes": "32",
        "value": "t_uint256"
      },
      "t_mapping(t_uint256,t_address)": {
        "encoding": "mapping",
        "key": "t_uint256",
        "label": "mapping(uint256 => address)",
        "numberOfBytes": "32",
        "value": "t_address"
      },
      "t_mapping(t_uint256,t_string_storage)": {
        "encoding": "mapping",
        "key": "t_uint256",
        "label": "mapping(uint256 => string)",
        "numberOfBytes": "32",
        "value": "t_string_storage"
      },
      "t_string_memory_ptr": {
        "encoding": "bytes",
        "label": "string",
        "numberOfBytes": "32"
      },
      "t_string_storage": {
        "encoding": "bytes",
        "label": "string",
        "numberOfBytes": "32"
      },
      "t_uint256": {
        "encoding": "inplace",
        "label": "uint256",
        "numberOfBytes": "32"
      }
    }
  }
}