{
  "address": "0x5FbDB2315678afecb367f032d93F642f64180aa3",
  "abi": [
    {
      "inputs": [],
      "stateMutability": "nonpayable",
      "type": "constructor"
    },
    {
      "inputs": [
        {
          "internalType": "string",
          "name": "_property",
          "type": "string"
        }
      ],
      "name": "confiscateStake",
      "outputs": [],
      "stateMutability": "nonpayable",
      "type": "function"
    },
    {
      "inputs": [
        {
          "internalType": "string",
          "name": "_property",
          "type": "string"
        }
      ],
      "name": "depositStake",
      "outputs": [],
      "stateMutability": "payable",
      "type": "function"
    },
    {
      "inputs": [
        {
          "internalType": "string",
          "name": "_property",
          "type": "string"
        }
      ],
      "name": "getStakeAmount",
      "outputs": [
        {
          "internalType": "uint256",
          "name": "",
          "type": "uint256"
        }
      ],
      "stateMutability": "view",
      "type": "function"
    },
    {
      "inputs": [
        {
          "internalType": "string",
          "name": "_property",
          "type": "string"
        }
      ],
      "name": "returnStake",
      "outputs": [
        {
          "internalType": "address",
          "name": "",
          "type": "address"
        }
      ],
      "stateMutability": "nonpayable",
      "type": "function"
    }
  ],
  "transactionHash": "0x686a7208385597a4841777e68448800ef64575cb42d88212d6e1e1f796aee491",
  "args": [],
  "numDeployments": 1,
  "solcInputHash": "6c094be77ea9d19ff5404d90a8b26fa1",
  "bytecode": "0x608060405234801561001057600080fd5b5033600260006101000a81548173ffffffffffffffffffffffffffffffffffffffff021916908373ffffffffffffffffffffffffffffffffffffffff16021790555061086e806100616000396000f3fe60806040526004361061003f5760003560e01c806306bcb8aa14610044578063211c03d214610081578063df78ce6e146100be578063ec9fc535146100e7575b600080fd5b34801561005057600080fd5b5061006b600480360381019061006691906105f7565b610103565b6040516100789190610659565b60405180910390f35b34801561008d57600080fd5b506100a860048036038101906100a391906105f7565b61012b565b6040516100b591906106b5565b60405180910390f35b3480156100ca57600080fd5b506100e560048036038101906100e091906105f7565b6102ca565b005b61010160048036038101906100fc91906105f7565b610408565b005b60006001826040516101159190610741565b9081526020016040518091039020549050919050565b6000600260009054906101000a900473ffffffffffffffffffffffffffffffffffffffff1673ffffffffffffffffffffffffffffffffffffffff163373ffffffffffffffffffffffffffffffffffffffff16146101bd576040517f08c379a00000000000000000000000000000000000000000000000000000000081526004016101b4906107b5565b60405180910390fd5b6000826040516101cd9190610741565b908152602001604051809103902060009054906101000a900473ffffffffffffffffffffffffffffffffffffffff1673ffffffffffffffffffffffffffffffffffffffff166108fc6001846040516102259190610741565b9081526020016040518091039020549081150290604051600060405180830381858888f1935050505015801561025f573d6000803e3d6000fd5b5060006001836040516102729190610741565b9081526020016040518091039020819055506000826040516102949190610741565b908152602001604051809103902060009054906101000a900473ffffffffffffffffffffffffffffffffffffffff169050919050565b600260009054906101000a900473ffffffffffffffffffffffffffffffffffffffff1673ffffffffffffffffffffffffffffffffffffffff163373ffffffffffffffffffffffffffffffffffffffff161461035a576040517f08c379a0000000000000000000000000000000000000000000000000000000008152600401610351906107b5565b60405180910390fd5b600260009054906101000a900473ffffffffffffffffffffffffffffffffffffffff1673ffffffffffffffffffffffffffffffffffffffff166108fc6001836040516103a69190610741565b9081526020016040518091039020549081150290604051600060405180830381858888f193505050501580156103e0573d6000803e3d6000fd5b5060006001826040516103f39190610741565b90815260200160405180910390208190555050565b336000826040516104199190610741565b908152602001604051809103902060006101000a81548173ffffffffffffffffffffffffffffffffffffffff021916908373ffffffffffffffffffffffffffffffffffffffff160217905550346001826040516104769190610741565b908152602001604051809103902060008282546104939190610804565b9250508190555050565b6000604051905090565b600080fd5b600080fd5b600080fd5b600080fd5b6000601f19601f8301169050919050565b7f4e487b7100000000000000000000000000000000000000000000000000000000600052604160045260246000fd5b610504826104bb565b810181811067ffffffffffffffff82111715610523576105226104cc565b5b80604052505050565b600061053661049d565b905061054282826104fb565b919050565b600067ffffffffffffffff821115610562576105616104cc565b5b61056b826104bb565b9050602081019050919050565b82818337600083830152505050565b600061059a61059584610547565b61052c565b9050828152602081018484840111156105b6576105b56104b6565b5b6105c1848285610578565b509392505050565b600082601f8301126105de576105dd6104b1565b5b81356105ee848260208601610587565b91505092915050565b60006020828403121561060d5761060c6104a7565b5b600082013567ffffffffffffffff81111561062b5761062a6104ac565b5b610637848285016105c9565b91505092915050565b6000819050919050565b61065381610640565b82525050565b600060208201905061066e600083018461064a565b92915050565b600073ffffffffffffffffffffffffffffffffffffffff82169050919050565b600061069f82610674565b9050919050565b6106af81610694565b82525050565b60006020820190506106ca60008301846106a6565b92915050565b600081519050919050565b600081905092915050565b60005b838110156107045780820151818401526020810190506106e9565b60008484015250505050565b600061071b826106d0565b61072581856106db565b93506107358185602086016106e6565b80840191505092915050565b600061074d8284610710565b915081905092915050565b600082825260208201905092915050565b7f596f7520617265206e6f7420746865206f776e65720000000000000000000000600082015250565b600061079f601583610758565b91506107aa82610769565b602082019050919050565b600060208201905081810360008301526107ce81610792565b9050919050565b7f4e487b7100000000000000000000000000000000000000000000000000000000600052601160045260246000fd5b600061080f82610640565b915061081a83610640565b9250828201905080821115610832576108316107d5565b5b9291505056fea264697066735822122085da1c768c261ed4d8c7fba32424c19828f1d8a7843cce33cc08200028f2bd2a64736f6c63430008180033",
  "devdoc": {
    "kind": "dev",
    "methods": {},
    "version": 1
  },
  "userdoc": {
    "kind": "user",
    "methods": {},
    "version": 1
  },
  "storageLayout": {
    "storage": [
      {
        "astId": 3252,
        "contract": "contracts/PropertyChecker.sol:PropertyChecker",
        "label": "propertyToAddress",
        "offset": 0,
        "slot": "0",
        "type": "t_mapping(t_string_memory_ptr,t_address_payable)"
      },
      {
        "astId": 3256,
        "contract": "contracts/PropertyChecker.sol:PropertyChecker",
        "label": "propertyToStake",
        "offset": 0,
        "slot": "1",
        "type": "t_mapping(t_string_memory_ptr,t_uint256)"
      },
      {
        "astId": 3258,
        "contract": "contracts/PropertyChecker.sol:PropertyChecker",
        "label": "owner",
        "offset": 0,
        "slot": "2",
        "type": "t_address_payable"
      }
    ],
    "types": {
      "t_address_payable": {
        "encoding": "inplace",
        "label": "address payable",
        "numberOfBytes": "20"
      },
      "t_mapping(t_string_memory_ptr,t_address_payable)": {
        "encoding": "mapping",
        "key": "t_string_memory_ptr",
        "label": "mapping(string => address payable)",
        "numberOfBytes": "32",
        "value": "t_address_payable"
      },
      "t_mapping(t_string_memory_ptr,t_uint256)": {
        "encoding": "mapping",
        "key": "t_string_memory_ptr",
        "label": "mapping(string => uint256)",
        "numberOfBytes": "32",
        "value": "t_uint256"
      },
      "t_string_memory_ptr": {
        "encoding": "bytes",
        "label": "string",
        "numberOfBytes": "32"
      },
      "t_uint256": {
        "encoding": "inplace",
        "label": "uint256",
        "numberOfBytes": "32"
      }
    }
  }
}